:1000000086C00000A2C00000A0C000009EC000008A
:100010009CC000009AC0000098C0000096C000007C
:1000200094C00000C3C3000090C000008EC0000058
:100030008CC000008AC0000088C0000086C000009C
:1000400084C0000082C0000026C600007EC0000000
:100050007CC000007AC0000078C0000076C00000BC
:1000600074C0000072C0000070C000006EC00000CC
:100070006CC000006AC00000C0C5000066C000007F
:1000800064C0000062C0000060C000000763423628
:10009000B79BD8A71A39685618AEBAAB558C1D3C19
:1000A000B7CC5763BD6DEDFD753EF6177231BF00DD
:1000B0000000803F08000000BE922449123EABAA17
:1000C000AA2ABECDCCCC4C3E00000080BEABAAAA72
:1000D000AA3E00000000BF000000803F00000000BA
:1000E00000084178D3BB4387D1133D190E3CC3BDF3
:1000F0004282AD2B3E68EC8276BED98FE1A93E4CA0
:1001000080EFFFBE01C4FF7F3F000000000011240C
:100110001FBECFEFD0E1DEBFCDBF11E0A0E0B1E068
:10012000E8E3FAE100E00BBF02C007900D92A63FA2
:10013000B107D9F722E0A6EFB1E001C01D92A133CB
:10014000B207E1F7B1D20C941A0D5ACFE5E6F0E010
:1001500090819460908390819D7F90839081916045
:10016000908396EF9A95F1F78BBB86EF8A95F1F71E
:1001700080818E7F80830895E5E6F0E090819B7F0B
:10018000908390819D7F908390819160908396EF82
:100190009A95F1F78BBB86EF8A95F1F780818E7F78
:1001A0008083089580E3E8DF8AE09BE30197F1F71D
:1001B00080E3E2DF80E791E00197F1F700C080E3A0
:1001C000DBDF80E791E00197F1F700C088E3D4DF3F
:1001D00086E69EE00197F1F700008EE0CDDF86E62F
:1001E0009EE00197F1F7000081E0C6DF8CEC9CE116
:1001F0000197F1F700C0000086E0BEDF86E69EE0D2
:100200000197F1F700000895CF92DF92EF92FF92ED
:100210006B017C010EC086E69EE00197F1F70000BD
:1002200020E030E040E85FE3C701B60181D56B0113
:100230007C0120E030E0A901C701B6012DD71816D6
:1002400054F3FF90EF90DF90CF9008957FDF86E624
:100250009EE00197F1F700000895CF93DF93EC0142
:1002600002C0F4DF219688818111FBCFDF91CF910D
:10027000089590E4899F600D1124862F80687CCFBB
:10028000089581E079DF60E070E080E090E4BCCF29
:100290000895EF92FF920F931F93CF93DF937C010A
:1002A0008B01EA01EEDF60E080E0E3DFC701D5DF2C
:1002B00060E081E0DEDFC801D0DF209739F0BE01C9
:1002C000DD0F880B990B38D69FDFDBDFDF91CF91F5
:1002D0001F910F91FF90EF9008954F925F926F9250
:1002E0007F92AF92BF92CF92DF92EF92FF920F93E5
:1002F0001F93CF93DF93CDB7DEB7C456D1090FB6A6
:10030000F894DEBF0FBECDBF81E013D181E011D1E3
:100310008C01BC016F5F7F4F072E000C880B990B7F
:100320000BD620E030E040EA50E4BAD620E030E0DE
:1003300040E85AE3B5D66B017C0126D12B013C0184
:1003400020E030E040E450E4C701B60156D58823F0
:1003500024F482B3806882BB03C082B38F7782BBF0
:100360001F930F938DE491E09F938F93CE0101969D
:100370005C019F938F930E943F0A20E030E040E2AF
:1003800051E4C301B2018CD620E030E040E850E4F3
:10039000D0D49FD58B01C701B6019BD56B017C01E1
:1003A000C8016AE070E00E94180A7F936F9328EEFC
:1003B00033E02C9DC0012D9D900D3C9D900D11248E
:1003C0009F938F938EE391E09F938F938E010D5CAB
:1003D0001F4F1F930F930E943F0A40E050E0B80167
:1003E000C50157DF0FB6F894DEBF0FBECDBFCC59A5
:1003F000DF4F0FB6F894DEBF0FBECDBFDF91CF91B8
:100400001F910F91FF90EF90DF90CF90BF90AF9032
:100410007F906F905F904F9008958F929F92AF92D0
:10042000BF92CF92DF92EF92FF920F931F93CF93E1
:10043000DF93CDB7DEB7C456D1090FB6F894DEBF4F
:100440000FBECDBF82E39E012F5F3F4F6901F901CF
:10045000282F11922A95E9F78E010D5C1F4FF801A4
:1004600011928A95E9F78DE077D07C01BC01990F54
:10047000880B990B61D520E030E44CE955E410D6A7
:1004800020E030E040E05BE30BD620E030E040E2EB
:1004900051E4B7D420E030E040EA51E4B2D44B015B
:1004A0005C01FF92EF928CE591E09F938F93DF9236
:1004B000CF92E5D720E030E048EC52E4C501B4012A
:1004C000EFD507D5CB0164E670E0B2D79F938F9349
:1004D000C501B401FED47F936F938BE691E09F93A7
:1004E0008F931F930F93CBD740E050E0B80189E77B
:1004F00091E0CFDE0FB6F894DEBF0FBECDBFCC5972
:10050000DF4F0FB6F894DEBF0FBECDBFDF91CF91A6
:100510001F910F91FF90EF90DF90CF90BF90AF9021
:100520009F908F90089516B880E487B983EA86B9C2
:10053000089597B1907E97B997B18770982B97B926
:1005400086B1806486B9349BFECF24B185B190E03A
:10055000982F8827822B0895883098F097B1907E45
:1005600097B997B18F71892B87B986B1806486B9A5
:10057000349BFECF24B185B190E0982F8827822B41
:1005800008958FEF9FEF08958F929F92AF92BF9241
:10059000CF92DF92EF92FF926B017C0120E030E07E
:1005A00040EC50E4E0D527E93FEF40E15DEB78D542
:1005B0004B015C0120E030E040EA50E4C701B601A5
:1005C000D2D52FE93BEA4DE05FE36AD59B01AC0150
:1005D000C501B401AED34B015C0120E030E040E83E
:1005E00050E4C701B601BFD526E33CE345E550E43E
:1005F00057D59B01AC01C501B4019AD34B015C01F5
:1006000020E030E040E450E4C701B601ACD524E37B
:1006100032EA4CE151E444D59B01AC01C501B4017F
:1006200088D34B015C0120E030E040E050E4C7019A
:10063000B60199D52AE534E64BE651E431D59B0164
:10064000AC01C501B40174D34B015C0120E030E082
:1006500040E451E4C701B60123D59B01AC01C501BB
:10066000B40167D325EE31E641E65EE361D3FF9046
:10067000EF90DF90CF90BF90AF909F908F900895B4
:100680008FEF8ABB9FE09093640090E891BB87BB9B
:1006900084BB80EF82B912BA0895F2DF47D133D11B
:1006A0002ED180DD40CF0895F8DF48EB5BE060E0BD
:1006B00071E08FE091E0EDDD8091FC01811117C0C8
:1006C0008091FA01882311F014D0F6CF80912B028B
:1006D00090912C0260EA7FE0ABD6892B69F780917C
:1006E000F901882311F099DEE7CFF7DDE5CF12BAE3
:1006F000E3CFECE1F1E0868183B98091290290910A
:100700002A0268EE73E094D6CB012AE030E0B9010A
:100710008FD6DC01AC5DBE4F8C9185BB86E69EE03A
:100720000197F1F700004FEF45BB848183B98091B9
:10073000290290912A0264E670E07AD6CB01B901D1
:1007400077D6DC01AC5DBE4F8C9185BB86E69EE022
:100750000197F1F7000045BB828183B9809129029E
:1007600090912A02B90164D6CB01B90161D6DC01AE
:10077000AC5DBE4F8C9185BB86E69EE00197F1F79C
:10078000000045BB808183B98091290290912A02A3
:10079000B9014ED6FC01EC5DFE4F808185BB86E63B
:1007A0009EE00197F1F7000045BB08951F920F925C
:1007B0000FB60F9211240BB60F922F933F934F93C6
:1007C0005F936F937F938F939F93AF93BF93EF93B9
:1007D000FF9380912D0290912E02019690932E020C
:1007E00080932D0220912B0230912C022F5F3F4FDE
:1007F00030932C0220932B02213A3F4021F4109297
:100800002C0210922B0280329E44C1F510922E02CF
:1008100010922D028091290290912A0201979093C3
:100820002A0280932902892BC1F41092FB011092B5
:10083000FA0181E08093F90182B3806882BB13B82A
:1008400085E090E09093F7018093F60148EB5BE040
:1008500061ED71E086E891E01CDD20912902309184
:100860002A02C90164E670E0E3D58336910531F4CC
:100870002852310930932A0220932902FF91EF91E7
:10088000BF91AF919F918F917F916F915F914F91A8
:100890003F912F910F900BBE0F900FBE0F901F90A6
:1008A000189515BC85B5886185BD84E683BD85B581
:1008B000826085BD80E887BF08958FB582688FBD4F
:1008C0008EB58B618EBD87E893E197BD86BD87E7C6
:1008D00091E09BBD8ABD089584EF91E09BBD8ABDE8
:1008E00008958AEF90E09BBD8ABD089510922E0274
:1008F00010922D0210922C0210922B020895F6DF16
:10090000D0DFDBCF089510929B0088E980939A0096
:10091000EDE9F0E086E0808380818F7B8083109218
:1009200098008FE580939900789408951BB888E922
:100930008AB986E080939500109290008FE589B97E
:10094000089512BA13B848EE53E061ED71E084E9FE
:1009500091E09FCC0895882329F0813031F0E0E0C8
:10096000F0E005C0E5E1F2E002C0E1E0F2E0848100
:10097000863439F4E6DF81E08093FC011092FB01BC
:1009800008958E3461F448EB5BE060E071E08FE045
:1009900091E07FDC1092FC0181E08093FB010895DF
:1009A000CF93DF9300D000D01F92CDB7DEB7FE010A
:1009B000319695E0DF011D929A95E9F79091170223
:1009C0009E3309F484C09091FC01992371F082E078
:1009D00090E09093F7018093F60148EB5BE06FE9BC
:1009E00071E089EA91E055DC72C0882329F08130FA
:1009F00031F060E070E005C065E172E002C061E0E6
:100A000072E010922E0210922D0210922A02109281
:100A1000290240E050E02CC090ED980F9A3008F089
:100A200056C021E030E02C0F3D1F240F351FD901A7
:100A30008C932091290230912A02C901880F991FB5
:100A4000220F331F220F331F220F331F820F931FDA
:100A500090932A0280932902208130E020533109AB
:100A6000820F931F90932A02809329024F5F5F4F5A
:100A7000443051053CF4FA013296E60FF71F8081AD
:100A80008E3351F64430510591F4FB0186818E334B
:100A900071F081E090E09093F7018093F60148EBCC
:100AA0005BE061ED71E084EB91E0F3DB10C081E08D
:100AB0008093FB018093FA011092F90112BA40E091
:100AC00050E0BE016F5F7F4F83EC91E0E2DB0F905F
:100AD0000F900F900F900F90DF91CF91089581119B
:100AE0000CC084E1E5E1F2E0DF011D928A95E9F7AF
:100AF000109200021092FF010895813059F484E1B0
:100B0000E1E0F2E0DF011D928A95E9F71092FE0123
:100B10001092FD0108950F931F93CF93C82F882340
:100B200029F0813031F000E010E005C005E112E06D
:100B300002C001E012E0F80181818C34B1F084350B
:100B4000A1F0853491F08F3481F083E090E09093B0
:100B5000F7018093F60148EB5BE06FE971E082ED0D
:100B600091E097DB8C2FBBDF44C08F3409F4B4DEF7
:100B7000F80181818C3419F48C2FEDDE38C0843576
:100B800041F5F80182818F34E9F418BA1092FB0123
:100B90001092FA011092F90110922A021092290281
:100BA00084E090E09093F7018093F60148EB5BE0DE
:100BB0006FED71E08BEE91E06CDB15BA13B88C2F02
:100BC0008EDF15C08091FA01811111C08C2FE8DEF3
:100BD0000EC0853461F4F80182818F3441F481DEE6
:100BE0001092F8011092FC0182B3806882BB8C2FB6
:100BF00076DFCF911F910F9108951F920F920FB63C
:100C00000F9211240BB60F922F933F934F935F9344
:100C10006F937F938F939F93AF93BF93EF93FF93C4
:100C2000ECE9F0E080818093300280838091FF01C5
:100C3000909100029C012F5F3F4F30930002209360
:100C4000FF01FC01EB5EFD4F4091300240832A30F2
:100C5000310514F080E043DF809115028C3311F0F0
:100C600080E03DDF809130028E3311F480E053DF6D
:100C7000FF91EF91BF91AF919F918F917F916F9174
:100C80005F914F913F912F910F900BBE0F900FBE30
:100C90000F901F9018951F920F920FB60F9211246C
:100CA0000BB60F922F933F934F935F936F937F9366
:100CB0008F939F93AF93BF93EF93FF938CB18093E8
:100CC0002F0280939C008091FD019091FE019C0178
:100CD0002F5F3F4F3093FE012093FD01FC01EF5F3A
:100CE000FD4F40912F0240832A30310514F081E0FE
:100CF000F6DE809101028C3311F081E0F0DE80910C
:100D00002F028E3311F481E006DFFF91EF91BF9146
:100D1000AF919F918F917F916F915F914F913F9193
:100D20002F910F900BBE0F900FBE0F901F90189534
:100D30005058BB27AA270ED075C166D130F06BD1B1
:100D400020F031F49F3F11F41EF45BC10EF4E095E6
:100D5000E7FB51C1E92F77D180F3BA176207730718
:100D60008407950718F071F49EF58FC10EF4E09595
:100D70000B2EBA2FA02D0B01B90190010C01CA0155
:100D8000A0011124FF27591B99F0593F50F4503E00
:100D900068F11A16F040A22F232F342F4427585FF2
:100DA000F3CF469537952795A795F0405395C9F70A
:100DB0007EF41F16BA0B620B730B840BBAF09150C2
:100DC000A1F0FF0FBB1F661F771F881FC2F70EC061
:100DD000BA0F621F731F841F48F487957795679534
:100DE000B795F7959E3F08F0B3CF9395880F08F01D
:100DF0009927EE0F979587950895D9D008F481E04B
:100E000008950CD00FC107D140F0FED030F021F48E
:100E10005F3F19F0F0C0511139C1F3C014D198F3FC
:100E20009923C9F35523B1F3951B550BBB27AA276B
:100E300062177307840738F09F5F5F4F220F331FDD
:100E4000441FAA1FA9F333D00E2E3AF0E0E830D0A9
:100E500091505040E695001CCAF729D0FE2F27D0AC
:100E6000660F771F881FBB1F261737074807AB077A
:100E7000B0E809F0BB0B802DBF01FF2793585F4FEF
:100E80002AF09E3F510568F0B6C000C15F3FECF309
:100E9000983EDCF3869577956795B795F7959F5FB4
:100EA000C9F7880F911D9695879597F90895E1E008
:100EB000660F771F881FBB1F621773078407BA0767
:100EC00020F0621B730B840BBA0BEE1F88F7E095C2
:100ED000089504D06894B111D9C00895BCD088F0A9
:100EE0009F5790F0B92F9927B751A0F0D1F0660F16
:100EF000771F881F991F1AF0BA95C9F712C0B13031
:100F000081F0C3D0B1E00895C0C0672F782F882743
:100F1000B85F39F0B93FCCF3869577956795B3956F
:100F2000D9F73EF490958095709561957F4F8F4FDE
:100F30009F4F0895E89409C097FB3EF490958095E3
:100F4000709561957F4F8F4F9F4F9923A9F0F92F8F
:100F500096E9BB279395F695879577956795B7950D
:100F6000F111F8CFFAF4BB0F11F460FF1BC06F5FF3
:100F70007F4F8F4F9F4F16C0882311F096E911C005
:100F8000772321F09EE8872F762F05C0662371F026
:100F900096E8862F70E060E02AF09A95660F771F3A
:100FA000881FDAF7880F9695879597F90895990F16
:100FB0000008550FAA0BE0E8FEEF16161706E80723
:100FC000F907C0F012161306E407F50798F0621B44
:100FD000730B840B950B39F40A2661F0232B242B19
:100FE000252B21F408950A2609F4A140A6958FEF38
:100FF000811D811D089597F99F6780E870E060E08A
:1010000008959FEF80EC089500240A9416161706A1
:1010100018060906089500240A94121613061406E9
:1010200005060895092E0394000C11F4882352F04C
:10103000BB0F40F4BF2B11F460FF04C06F5F7F4F04
:101040008F4F9F4F089557FD9058440F551F59F0EB
:101050005F3F71F04795880F97FB991F61F09F3FA5
:1010600079F087950895121613061406551FF2CFCE
:101070004695F1DF08C0161617061806991FF1CF1E
:1010800086957105610508940895E894BB27662745
:101090007727CB0197F908958ADF08F48FEF089539
:1010A0000BD0C0CFB1DF28F0B6DF18F0952309F0E0
:1010B000A2CFA7CF1124EACFC6DFA0F3959FD1F32B
:1010C000950F50E0551F629FF001729FBB27F00DF6
:1010D000B11D639FAA27F00DB11DAA1F649F66274B
:1010E000B00DA11D661F829F2227B00DA11D621F9A
:1010F000739FB00DA11D621F839FA00D611D221F54
:10110000749F3327A00D611D231F849F600D211D37
:10111000822F762F6A2F11249F5750408AF0E1F0DA
:1011200088234AF0EE0FFF1FBB1F661F771F881F23
:1011300091505040A9F79E3F510570F05CCFA6CF6B
:101140005F3FECF3983EDCF3869577956795B7950E
:10115000F795E7959F5FC1F7FE2B880F911D969538
:10116000879597F90895FA01EE0FFF1F3096210534
:10117000310599F16115710561F48038BFE39B0772
:1011800049F168949038810561F08038BFEF9B0782
:1011900041F0992342F5FF3FE1053105210511F1A9
:1011A000E8940894E795D901AA2329F4AB2FBE2F20
:1011B000F85FD0F310C0FF5F70F4A695E0F7F73941
:1011C00050F019F0FF3A38F49F779F930CD00F90AE
:1011D00007FC905808953EF014CF60E070E080E87E
:1011E0009FE308954FE79F775F934F933F932F932C
:1011F0009ED02F913F914F915F9152DF05C019F41E
:101200000EF0F9CE42CFFDCE26DFC8F39638C0F7F8
:1012100007F80F92E8942BE33AEA48EB5FE74EDFDA
:101220000F920F920F924DB75EB70F92C0D0ECE8BD
:10123000F0E016D04F915F91EF91FF91E595EE1F91
:10124000FF1F49F0FE57E0684427EE0F441FFA9550
:10125000E1F74195550B32D00F9007FE26C0089557
:10126000DF93CF931F930F93FF92EF92DF927B0157
:101270008C01689405C0DA2EEF011EDFFE01E894B0
:10128000A5912591359145915591AEF3EF0162DD20
:10129000FE019701A801DA9479F7DF90EF90FF90B3
:1012A0000F911F91CF91DF9108959B01AC0160E0F8
:1012B00070E080E89FE3A5CD9ECEACC0CCDEE8F325
:1012C0009923D9F3940F511DBBF39150504094F0E2
:1012D00059F0882332F0660F771F881F91505040D5
:1012E000C1F79E3F510544F7880F911D969587954C
:1012F00097F908955F3FACF0983E9CF0BB27869528
:1013000077956795B79508F4B1609395C1F7BB0FD2
:1013100058F711F460FFE8CF6F5F7F4F8F4F9F4FFB
:10132000E3CFB4CE0EF076C06CCE689464CE93DE7C
:10133000C8F39923D1F3C6F3DF93CF931F930F9391
:10134000FF92C92FDD2788232AF02197660F771F88
:10135000881FDAF720E030E040E85FEB9FE3883950
:1013600020F0803E30F021968F77E3DCE4EBF0E074
:1013700003C0DFDCE1EEF0E073DF8B01BE01EC01C6
:10138000FB2E6F5771097595771F880B990BD4DD6C
:1013900028E132E741E35FE38FDEAF2D9801AE0134
:1013A000FF900F911F91CF91DF91D4DC3BCEFA01DA
:1013B000DC01AA0FBB1F9B01AC01BF5728F42227F9
:1013C0003327442750781FC0B75188F4AB2F00242F
:1013D000469537952795011CA395D2F3002069F017
:1013E000220F331F441FB395DAF30DD0A1CC613027
:1013F0007105A0E88A07B94630F49B01AC01662765
:10140000772788279078309621F020833183428394
:10141000538308959F3F31F0915020F4879577953D
:101420006795B795880F911D9695879597F90895BB
:1014300097FB072E16F4009406D077FD08D00BD04A
:1014400007FC05D03EF4909581959F4F08957095C7
:1014500061957F4F0895AA1BBB1B51E107C0AA1FCE
:10146000BB1FA617B70710F0A61BB70B881F991F45
:101470005A95A9F780959095BC01CD0108950F93D9
:101480001F93CF93DF93CDB7DEB72E970FB6F894A7
:10149000DEBF0FBECDBF0D891E8986E08C831A8307
:1014A00009838FEF9FE79E838D83AE01475E5F4F79
:1014B0006F89788DCE01019610D0EF81F885E00F0D
:1014C000F11F10822E960FB6F894DEBF0FBECDBF6F
:1014D000DF91CF911F910F9108952F923F924F92DC
:1014E0005F926F927F928F929F92AF92BF92CF92B4
:1014F000DF92EF92FF920F931F93CF93DF93CDB7BD
:10150000DEB72B970FB6F894DEBF0FBECDBF6C01D0
:101510007B018A01FC0117821682838181FFBFC192
:10152000CE0101963C01F6019381F70193FD85916F
:1015300093FF81917F01882309F4ADC1853239F48D
:1015400093FD859193FF81917F01853221F4B6014E
:1015500090E0D6D1E8CF912C212C312CFFE1F3156E
:10156000D8F08B3279F038F4803279F08332A1F4FC
:10157000232D20611DC08D3261F0803369F4232D4D
:10158000216016C0832D8260382EE32DE4603E2E4C
:101590002AC0F32DF8601DC037FC2DC020ED280FA8
:1015A0002A3040F08E32B9F436FC75C1232D206408
:1015B000322E19C036FE06C08AE0989E200D1124F6
:1015C000922E11C0EAE02E9E200D1124222EF32D22
:1015D000F0623F2E08C08C3621F4832D8068382EAF
:1015E00002C0883641F4F70193FD859193FF819104
:1015F0007F018111B3CF982F9F7D9554933028F4AC
:101600000C5F1F4F9FE399830DC0833631F0833702
:1016100071F0833509F055C020C0F80180818983BD
:101620000E5F1F4F88248394912C530112C0280110
:10163000F2E04F0E511CF801A080B18036FE03C0CD
:10164000692D70E002C06FEF7FEFC5014ED14C01F4
:101650008201F32DFF773F2E15C0280122E0420EB4
:10166000511CF801A080B18036FE03C0692D70E0E6
:1016700002C06FEF7FEFC5012DD14C01F32DF06853
:101680003F2E820133FC19C0822D90E08816990606
:10169000A0F4B60180E290E033D12A94F5CFF501B1
:1016A00037FC859137FE81915F01B60190E028D12A
:1016B00021102A9421E0821A91088114910479F76B
:1016C000E1C0843611F0893639F5F80137FE07C0DC
:1016D00060817181828193810C5F1F4F08C060819E
:1016E0007181072E000C880B990B0E5F1F4FF32D95
:1016F000FF763F2E97FF09C0909580957095619574
:101700007F4F8F4F9F4FF0683F2E2AE030E0A301BC
:1017100033D1882E861844C0853731F4232D2F7E8F
:10172000B22E2AE030E025C0932D997FB92E8F3656
:10173000C1F018F4883579F0AEC0803719F08837D9
:1017400021F0A9C0E92FE061BE2EB4FE0DC0FB2D33
:10175000F460BF2E09C034FE0AC0292F2660B22EC5
:1017600006C028E030E005C020E130E002C020E102
:1017700032E0F801B7FE07C06081718182819381F8
:101780000C5F1F4F06C06081718180E090E00E5FAA
:101790001F4FA301F1D0882E8618FB2DFF773F2E17
:1017A00036FE0DC0232D2E7FA22E891458F434FE50
:1017B0000BC032FC09C0832D8E7EA82E05C0B82C2C
:1017C000A32C03C0B82C01C0B92CA4FE0FC0FE018D
:1017D000E80DF11D8081803321F49A2D997EA92E88
:1017E00009C0A2FE06C0B394B39404C08A2D8678C3
:1017F00009F0B394A3FC10C0A0FE06C0B21480F49C
:10180000280C922C9B180DC0B21458F4B60180E23B
:1018100090E076D0B394F8CFB21418F42B1802C02D
:10182000982C212CA4FE0FC0B60180E390E068D074
:10183000A2FE16C0A1FC03C088E790E002C088E5C4
:1018400090E0B6010CC08A2D867851F0A1FE02C04E
:101850008BE201C080E2A7FC8DE2B60190E050D09F
:10186000891430F4B60180E390E04AD09A94F8CF1E
:101870008A94F301E80DF11D8081B60190E040D01B
:101880008110F6CF222009F44ECEB60180E290E01E
:1018900037D02A94F7CFF6018681978102C08FEF67
:1018A0009FEF2B960FB6F894DEBF0FBECDBFDF9132
:1018B000CF911F910F91FF90EF90DF90CF90BF904D
:1018C000AF909F908F907F906F905F904F903F90E0
:1018D0002F900895FC010590615070400110D8F7D9
:1018E000809590958E0F9F1F0895FC016150704068
:1018F00001900110D8F7809590958E0F9F1F089545
:101900000F931F93CF93DF93FB01238121FD03C02E
:101910008FEF9FEF2CC022FF16C046815781248194
:1019200035814217530744F4A081B1819D012F5F97
:101930003F4F318320838C93268137812F5F3F4F28
:101940003783268314C08B01EC01FB010084F185F1
:10195000E02D0995892BE1F6D80116968D919C9181
:101960001797019617969C938E931697CE01DF9149
:10197000CF911F910F910895FA01AA27283051F1B4
:10198000203181F1E8946F936E7F6E5F7F4F8F4FB0
:101990009F4FAF4FB1E03ED0B4E03CD0670F781F0F
:1019A000891F9A1FA11D680F791F8A1F911DA11DF4
:1019B0006A0F711D811D911DA11D20D009F468942D
:1019C0003F912AE0269F11243019305D3193DEF6D5
:1019D000CF010895462F4770405D4193B3E00FD08B
:1019E000C9F7F6CF462F4F70405D4A3318F0495D76
:1019F00031FD4052419302D0A9F7EACFB4E0A69559
:101A00009795879577956795BA95C9F7009761057A
:101A1000710508959B01AC010A2E069457954795D0
:101A200037952795BA95C9F7620F731F841F951FC5
:081A3000A01D0895F894FFCFFA
:101A380057697468205053592026204C574700484E
:101A4800656C6C6F204D5032205450001F002F00E1
:101A58004F008F00C0F9A4B0999282D8809046694F
:101A6800726544617461203A202534642000202581
:101A780030346420562C202530326420005261779F
:101A880044617461203A202534642000526177440F
:101A98006174613A202530346420006973203A204B
:101AA8002532642E253264200043757272656E7487
:101AB8002054656D700054696D6572206973204407
:101AC8006F6E65004F7574696E67204E6F77006999
:101AD80073204C6F636B656400414C4C2053656EFA
:101AE800736F720074696D6572204F766572666CEB
:101AF8006F770054696D6572205374617274203A6F
:101B080020005061636B657420696E70757400699C
:101B18006E7465727275707465640054696D65726F
:061B28002069732000009B
:00000001FF
