S00F000070726F6A6563742E737265631E
S113000086C00000A2C00000A0C000009EC0000086
S11300109CC000009AC0000098C0000096C0000078
S113002094C000001DC3000090C000008EC00000FA
S11300308CC000008AC0000088C0000086C0000098
S113004084C0000082C0000080C000007EC00000A8
S11300507CC000007AC0000078C0000076C00000B8
S113006074C0000072C0000070C000006EC00000C8
S11300706CC000006AC0000068C0000066C00000D8
S113008064C0000062C0000060C000000763423624
S1130090B79BD8A71A39685618AEBAAB558C1D3C15
S11300A0B7CC5763BD6DEDFD753EF6177231BF00D9
S11300B00000803F08000000BE922449123EABAA13
S11300C0AA2ABECDCCCC4C3E00000080BEABAAAA6E
S11300D0AA3E00000000BF000000803F00000000B6
S11300E000084178D3BB4387D1133D190E3CC3BDEF
S11300F04282AD2B3E68EC8276BED98FE1A93E4C9C
S113010080EFFFBE01C4FF7F3F0000000000112408
S11301101FBECFEFD0E1DEBFCDBF11E0A0E0B1E064
S1130120E6EAF4E100E00BBF02C007900D92AA35A5
S1130130B107D9F721E0AAE5B1E001C01D92A536C7
S1130140B207E1F786D10C94510A5ACF8FEF8ABBDC
S11301508FE0809364000895E5E6F0E09081946078
S1130160908390819D7F908390819160908396EF9E
S11301709A95F1F78BBB86EF8A95F1F780818E7F94
S113018080830895E5E6F0E090819B7F90839081E1
S11301909D7F908390819160908396EF9A95F1F77B
S11301A08BBB86EF8A95F1F780818E7F80830895DB
S11301B0CDDF80E3E7DF8AE09BE30197F1F780E39B
S11301C0E1DF80E791E00197F1F700C080E3DADF37
S11301D080E791E00197F1F700C088E3D3DF86E67A
S11301E09EE00197F1F700008EE0CCDF86E69EE00A
S11301F00197F1F7000081E0C5DF8CEC9CE10197E9
S1130200F1F700C0000086E0BDDF86E69EE00197BE
S1130210F1F700000895CF92DF92EF92FF926B0105
S11302207C010EC086E69EE00197F1F7000020E015
S113023030E040E85FE3C701B601B1D26B017C0155
S113024020E030E0A901C701B601F5D3181654F334
S1130250FF90EF90DF90CF9008957EDF86E69EE0DA
S11302600197F1F700000895CF93DF93EC0102C0EA
S1130270F4DF219688818111FBCFDF91CF9108951E
S113028090E4899F600D1124862F80687BCF0895A8
S113029081E078DF60E070E080E090E4BCCF089516
S11302A0EF92FF920F931F93CF93DF937C018B0107
S11302B0EA01EEDF60E080E0E3DFC701D5DF60E064
S11302C081E0DEDFC801D0DF209739F0BE01DD0F09
S11302D0880B990B00D39FDFDBDFDF91CF911F9158
S11302E00F91FF90EF90089516B880E487B983EAE0
S11302F086B9089597B1907E97B997B18770982B76
S113030097B986B1806486B9349BFECF24B185B198
S113031090E0982F8827822B08958FEF81BB12BA23
S113032008952AD221D2F9DF43DFDEDFDDCF08953D
S11303300F931F93CF93DF938C01EB0160E080E078
S11303409FDFC80191DF60E081E09ADFCE018CDF9E
S1130350DF91CF911F910F9108958F929F92AF9249
S1130360BF92CF92DF92EF92FF926B017C0120E06B
S113037030E040EC50E4C6D327E93FEF40E15DEBC9
S11303805ED34B015C0120E030E040EA50E4C70159
S1130390B601B8D32FE93BEA4DE05FE350D39B01AC
S11303A0AC01C501B401FCD14B015C0120E030E09B
S11303B040E850E4C701B601A5D326E33CE345E594
S11303C050E43DD39B01AC01C501B401E8D14B011C
S11303D05C0120E030E040E450E4C701B60192D370
S11303E024E332EA4CE151E42AD39B01AC01C50178
S11303F0B401D6D14B015C0120E030E040E050E490
S1130400C701B6017FD32AE534E64BE651E417D39E
S11304109B01AC01C501B401C2D14B015C0120E0D8
S113042030E040E451E4C701B60109D39B01AC01BB
S1130430C501B401B5D125EE31E641E65EE3AFD1A5
S1130440FF90EF90DF90CF90BF90AF909F908F90F0
S11304500895CF93DF93CDB7DEB7C058D1090FB657
S1130460F894DEBF0FBECDBF8DE0E0E3F1E0DE0126
S1130470119601900D928A95E1F78FE0EDE3F1E09A
S1130480DE011E9601900D928A95E1F74ADFBE01C6
S1130490625F7F4FCE0101964BDF60E070E88BE333
S11304A095E4B9DEF5DE80915C018111FCCF809189
S11304B05B01882311F077D0F6CF8091630190918E
S11304C0640160EA7FE0EBD4892B69F781E012DFF5
S11304D08C01BC016F5F7F4F072E000C880B990BBA
S11304E0FAD120E030E040EA50E4A9D220E030E044
S11304F040E85AE3A4D24B015C012FDF6B017C017D
S113050020E030E040E450E4C501B401ADD18823DB
S11305101CF48FEF82BB01C012BA1F930F9382E1C8
S113052091E09F938F938E01035E1F4F1F930F9350
S1130530DDD420E030E040E251E4C701B6017FD2CF
S113054020E030E040E850E42BD192D17B01C5019A
S1130550B4018ED14B015C01C7016AE070E09FD405
S11305607F936F9328EE33E0289DC001299D900D61
S1130570389D900D11249F938F9381E291E09F9376
S11305808F937E018FE4E80EF11CFF92EF92AED4BC
S113059040E050E0B701C80183DE0FB6F894DEBF37
S11305A00FBECDBF80CFE0E0F1E0868183B98091BA
S11305B05F019091600168EE73E071D4CB012AE091
S11305C030E0B9016CD4DC01A85FBE4F8C9188BBCC
S11305D086E69EE00197F1F700004FEF48BB848167
S11305E083B980915F019091600164E670E057D413
S11305F0CB01B90154D4DC01A85FBE4F8C9188BBF8
S113060086E69EE00197F1F7000048BB828183B93A
S113061080915F0190916001B90141D4CB01B9018E
S11306203ED4DC01A85FBE4F8C9188BB86E69EE079
S11306300197F1F7000048BB808183B980915F0185
S113064090916001B9012BD4FC01E85FFE4F8081D9
S113065088BB86E69EE00197F1F7000048BB089549
S11306601F920F920FB60F9211240BB60F922F9375
S11306703F934F935F936F937F938F939F93AF9326
S1130680BF93EF93FF9380915D0190915E0101967A
S113069090935E0180935D01209163013091640128
S11306A02F5F3F4F3093640120936301213A3F4011
S11306B021F4109264011092630180329E4461F52A
S11306C010925E0110925D0180915F019091600132
S11306D001979093600180935F01892B61F41092DC
S11306E05B0110925A0113B848E853E16FE271E0DC
S11306F08CE491E0D5DD20915F0130916001C90166
S113070064E670E0CCD38336910531F42852310984
S11307103093600120935F01FF91EF91BF91AF91FE
S11307209F918F917F916F915F914F913F912F9105
S11307300F900BBE0F900FBE0F901F90189515BC15
S113074085B5886185BD84E683BD85B5826085BD38
S113075080E887BF089510925E0110925D011092A7
S113076064011092630108958FEF87BB80EF82B913
S1130770E6DFF1DF7894089510929B0088E9809376
S11307809A00EDE9F0E086E0808380818F7B8083AE
S1130790109298008FE080939900789408955058AF
S11307A0BB27AA270ED00DC1FED030F003D120F014
S11307B031F49F3F11F41EF4F3C00EF4E095E7FB0F
S11307C0E9C0E92F0FD180F3BA17620773078407D2
S11307D0950718F071F49EF527C10EF4E0950B2EE1
S11307E0BA2FA02D0B01B90190010C01CA01A0017F
S11307F01124FF27591B99F0593F50F4503E68F1DA
S11308001A16F040A22F232F342F4427585FF3CF1A
S1130810469537952795A795F0405395C9F77EF4EB
S11308201F16BA0B620B730B840BBAF09150A1F034
S1130830FF0FBB1F661F771F881FC2F70EC0BA0FBA
S1130840621F731F841F48F4879577956795B79542
S1130850F7959E3F08F0B3CF9395880F08F099273A
S1130860EE0F97958795089571D008F481E0089567
S113087004D06894B111D9C00895BCD088F09F57B2
S113088090F0B92F9927B751A0F0D1F0660F771FD8
S1130890881F991F1AF0BA95C9F712C0B13081F0B8
S11308A0C3D0B1E00895C0C0672F782F8827B85F00
S11308B039F0B93FCCF3869577956795B395D9F719
S11308C03EF490958095709561957F4F8F4F9F4F23
S11308D00895E89409C097FB3EF49095809570952F
S11308E061957F4F8F4F9F4F9923A9F0F92F96E978
S11308F0BB279395F695879577956795B795F111ED
S1130900F8CFFAF4BB0F11F460FF1BC06F5F7F4F89
S11309108F4F9F4F16C0882311F096E911C077239B
S113092021F09EE8872F762F05C0662371F096E8A4
S1130930862F70E060E02AF09A95660F771F881F73
S1130940DAF7880F9695879597F90895990F000817
S1130950550FAA0BE0E8FEEF16161706E807F9078D
S1130960C0F012161306E407F50798F0621B730B28
S1130970840B950B39F40A2661F0232B242B252BA9
S113098021F408950A2609F4A140A6958FEF811D4C
S1130990811D089597F99F6780E870E060E00895ED
S11309A09FEF80EC089500240A9416161706180683
S11309B00906089500240A9412161306140605065F
S11309C00895092E0394000C11F4882352F0BB0FF0
S11309D040F4BF2B11F460FF04C06F5F7F4F8F4F53
S11309E09F4F089557FD9058440F551F59F05F3F8E
S11309F071F04795880F97FB991F61F09F3F79F03D
S1130A0087950895121613061406551FF2CF4695BE
S1130A10F1DF08C0161617061806991FF1CF869540
S1130A207105610508940895E894BB276627772724
S1130A30CB0197F908958ADF08F48FEF08950BD05E
S1130A40C0CFB1DF28F0B6DF18F0952309F0A2CFAC
S1130A50A7CF1124EACFC6DFA0F3959FD1F3950F5A
S1130A6050E0551F629FF001729FBB27F00DB11D2E
S1130A70639FAA27F00DB11DAA1F649F6627B00DBE
S1130A80A11D661F829F2227B00DA11D621F739FA7
S1130A90B00DA11D621F839FA00D611D221F749FB5
S1130AA03327A00D611D231F849F600D211D822FFC
S1130AB0762F6A2F11249F5750408AF0E1F0882343
S1130AC04AF0EE0FFF1FBB1F661F771F881F915050
S1130AD05040A9F79E3F510570F05CCFA6CF5F3F11
S1130AE0ECF3983EDCF3869577956795B795F79583
S1130AF0E7959F5FC1F7FE2B880F911D969587950B
S1130B0097F90895FA01EE0FFF1F3096210531057C
S1130B1099F16115710561F48038BFE39B0749F1D0
S1130B2068949038810561F08038BFEF9B0741F0ED
S1130B30992342F5FF3FE1053105210511F1E894C0
S1130B400894E795D901AA2329F4AB2FBE2FF85FA7
S1130B50D0F310C0FF5F70F4A695E0F7F73950F0BA
S1130B6019F0FF3A38F49F779F930CD00F9007FC4D
S1130B70905808953EF014CF60E070E080E89FE361
S1130B8008954FE79F775F934F933F932F939ED0A2
S1130B902F913F914F915F9152DF05C019F40EF0F0
S1130BA0F9CE42CFFDCE26DFC8F39638C0F707F85A
S1130BB00F92E8942BE33AEA48EB5FE74EDF0F929B
S1130BC00F920F924DB75EB70F92C0D0ECE8F0E0F1
S1130BD016D04F915F91EF91FF91E595EE1FFF1FA6
S1130BE049F0FE57E0684427EE0F441FFA95E1F7F9
S1130BF04195550B32D00F9007FE26C00895DF9320
S1130C00CF931F930F93FF92EF92DF927B018C019E
S1130C10689405C0DA2EEF011EDFFE01E894A59169
S1130C202591359145915591AEF3EF01CADDFE0151
S1130C309701A801DA9479F7DF90EF90FF900F9174
S1130C401F91CF91DF9108959B01AC0160E070E0AA
S1130C5080E89FE3AEC09ECE14C1CCDEE8F39923B6
S1130C60D9F3940F511DBBF39150504094F059F0B7
S1130C70882332F0660F771F881F91505040C1F7C8
S1130C809E3F510544F7880F911D9695879597F9D6
S1130C9008955F3FACF0983E9CF0BB27869577950E
S1130CA06795B79508F4B1609395C1F7BB0F58F7F2
S1130CB011F460FFE8CF6F5F7F4F8F4F9F4FE3CFFB
S1130CC0B4CE0EF0DEC06CCE689464CE93DEC8F36E
S1130CD09923D1F3C6F3DF93CF931F930F93FF921E
S1130CE0C92FDD2788232AF02197660F771F881FD5
S1130CF0DAF720E030E040E85FEB9FE3883920F04A
S1130D00803E30F021968F774BDDE4EBF0E003C0BA
S1130D1047DDE1EEF0E073DF8B01BE01EC01FB2E59
S1130D206F5771097595771F880B990BD4DD28E1EE
S1130D3032E741E35FE38FDEAF2D9801AE01FF9010
S1130D400F911F91CF91DF913CDD3BCEFA01DC0185
S1130D50AA0FBB1F9B01AC01BF5728F422273327DE
S1130D60442750781FC0B75188F4AB2F0024469510
S1130D7037952795011CA395D2F3002069F0220F23
S1130D80331F441FB395DAF30DD009CD61307105DB
S1130D90A0E88A07B94630F49B01AC01662777279F
S1130DA088279078309621F02083318342835383BF
S1130DB008950CD006CEFEDD40F0F5DD30F021F4D0
S1130DC05F3F19F0E7CD511130CEEACD0BDE98F339
S1130DD09923C9F35523B1F3951B550BBB27AA27B8
S1130DE062177307840738F09F5F5F4F220F331F2A
S1130DF0441FAA1FA9F333D00E2E3AF0E0E830D0F6
S1130E0091505040E695001CCAF729D0FE2F27D0F8
S1130E10660F771F881FBB1F261737074807AB07C6
S1130E20B0E809F0BB0B802DBF01FF2793585F4F3B
S1130E302AF09E3F510568F0ADCDF7CD5F3FECF34E
S1130E40983EDCF3869577956795B795F7959F5F00
S1130E50C9F7880F911D9695879597F90895E1E054
S1130E60660F771F881FBB1F621773078407BA07B3
S1130E7020F0621B730B840BBA0BEE1F88F7E0950E
S1130E8008959F3F31F0915020F4879577956795A9
S1130E90B795880F911D9695879597F9089597FBB7
S1130EA0072E16F4009406D077FD08D00BD007FC6B
S1130EB005D03EF4909581959F4F08957095619566
S1130EC07F4F0895AA1BBB1B51E107C0AA1FBB1F7C
S1130ED0A617B70710F0A61BB70B881F991F5A95C2
S1130EE0A9F780959095BC01CD0108950F931F93A8
S1130EF0CF93DF93CDB7DEB72E970FB6F894DEBF4E
S1130F000FBECDBF0D891E8986E08C831A830983A9
S1130F108FEF9FE79E838D83AE01475E5F4F6F899E
S1130F20788DCE01019610D0EF81F885E00FF11F86
S1130F3010822E960FB6F894DEBF0FBECDBFDF91A0
S1130F40CF911F910F9108952F923F924F925F92EC
S1130F506F927F928F929F92AF92BF92CF92DF92C5
S1130F60EF92FF920F931F93CF93DF93CDB7DEB72A
S1130F702B970FB6F894DEBF0FBECDBF6C017B017B
S1130F808A01FC0117821682838181FFBFC1CE01D1
S1130F9001963C01F6019381F70193FD859193FF3E
S1130FA081917F01882309F4ADC1853239F493FD21
S1130FB0859193FF81917F01853221F4B60190E000
S1130FC0D6D1E8CF912C212C312CFFE1F315D8F0A8
S1130FD08B3279F038F4803279F08332A1F4232D06
S1130FE020611DC08D3261F0803369F4232D2160AE
S1130FF016C0832D8260382EE32DE4603E2E2AC075
S1131000F32DF8601DC037FC2DC020ED280F2A30C9
S113101040F08E32B9F436FC75C1232D2064322E93
S113102019C036FE06C08AE0989E200D1124922E27
S113103011C0EAE02E9E200D1124222EF32DF06221
S11310403F2E08C08C3621F4832D8068382E02C0D0
S1131050883641F4F70193FD859193FF81917F01D7
S11310608111B3CF982F9F7D9554933028F40C5F52
S11310701F4F9FE399830DC0833631F0833771F09E
S1131080833509F055C020C0F801808189830E5F43
S11310901F4F88248394912C530112C02801F2E03D
S11310A04F0E511CF801A080B18036FE03C0692D9B
S11310B070E002C06FEF7FEFC5014ED14C01820199
S11310C0F32DFF773F2E15C0280122E0420E511C5C
S11310D0F801A080B18036FE03C0692D70E002C023
S11310E06FEF7FEFC5012DD14C01F32DF0683F2E3A
S11310F0820133FC19C0822D90E088169906A0F471
S1131100B60180E290E033D12A94F5CFF50137FCA3
S1131110859137FE81915F01B60190E028D12110BD
S11311202A9421E0821A91088114910479F7E1C08C
S1131130843611F0893639F5F80137FE07C060812D
S11311407181828193810C5F1F4F08C0608171811E
S1131150072E000C880B990B0E5F1F4FF32DFF76A3
S11311603F2E97FF09C090958095709561957F4FAC
S11311708F4F9F4FF0683F2E2AE030E0A30133D118
S1131180882E861844C0853731F4232D2F7EB22E45
S11311902AE030E025C0932D997FB92E8F36C1F017
S11311A018F4883579F0AEC0803719F0883721F00B
S11311B0A9C0E92FE061BE2EB4FE0DC0FB2DF46082
S11311C0BF2E09C034FE0AC0292F2660B22E06C0E5
S11311D028E030E005C020E130E002C020E132E048
S11311E0F801B7FE07C060817181828193810C5F31
S11311F01F4F06C06081718180E090E00E5F1F4F39
S1131200A301F1D0882E8618FB2DFF773F2E36FEE2
S11312100DC0232D2E7FA22E891458F434FE0BC04A
S113122032FC09C0832D8E7EA82E05C0B82CA32CB9
S113123003C0B82C01C0B92CA4FE0FC0FE01E80DF8
S1131240F11D8081803321F49A2D997EA92E09C045
S1131250A2FE06C0B394B39404C08A2D867809F024
S1131260B394A3FC10C0A0FE06C0B21480F4280CF2
S1131270922C9B180DC0B21458F4B60180E290E091
S113128076D0B394F8CFB21418F42B1802C0982C6B
S1131290212CA4FE0FC0B60180E390E068D0A2FE2A
S11312A016C0A1FC03C088E790E002C088E590E086
S11312B0B6010CC08A2D867851F0A1FE02C08BE2E3
S11312C001C080E2A7FC8DE2B60190E050D0891401
S11312D030F4B60180E390E04AD09A94F8CF8A942F
S11312E0F301E80DF11D8081B60190E040D081103A
S11312F0F6CF222009F44ECEB60180E290E037D03A
S11313002A94F7CFF6018681978102C08FEF9FEF71
S11313102B960FB6F894DEBF0FBECDBFDF91CF91F1
S11313201F910F91FF90EF90DF90CF90BF90AF90FF
S11313309F908F907F906F905F904F903F902F90F1
S11313400895FC010590615070400110D8F7809514
S113135090958E0F9F1F0895FC016150704001907D
S11313600110D8F7809590958E0F9F1F08950F93C5
S11313701F93CF93DF93FB01238121FD03C08FEFE4
S11313809FEF2CC022FF16C04681578124813581EE
S11313904217530744F4A081B1819D012F5F3F4F51
S11313A0318320838C93268137812F5F3F4F37838E
S11313B0268314C08B01EC01FB010084F185E02D30
S11313C00995892BE1F6D80116968D919C91179772
S11313D0019617969C938E931697CE01DF91CF9129
S11313E01F910F910895FA01AA27283051F1203155
S11313F081F1E8946F936E7F6E5F7F4F8F4F9F4FA5
S1131400AF4FB1E03ED0B4E03CD0670F781F891FE6
S11314109A1FA11D680F791F8A1F911DA11D6A0FB4
S1131420711D811D911DA11D20D009F468943F9167
S11314302AE0269F11243019305D3193DEF6CF0166
S11314400895462F4770405D4193B3E00FD0C9F72C
S1131450F6CF462F4F70405D4A3318F0495D31FD99
S11314604052419302D0A9F7EACFB4E0A6959795EC
S1131470879577956795BA95C9F7009761057105C2
S113148008959B01AC010A2E06945795479537950C
S11314902795BA95C9F7620F731F841F951FA01D66
S10914A00895F894FFCF4B
S11314A61F002F004F008F00C0F9A4B0999282D874
S11314B6809052617744617461203A202534642017
S11314C600202530346420562C2025303264200038
S11314D648656C6C6F204D50322054500057697427
S11314E668205053592026204C57470054696D658F
S10D14F67220697320446F6E6500D4
S9030000FC
